{
  "address": "0x5020E1eE7f20d42e1a0273DD90C29fBF6E2004fF",
  "abi": [
    {
      "inputs": [
        {
          "internalType": "address",
          "name": "_owner",
          "type": "address"
        },
        {
          "internalType": "address",
          "name": "bstr",
          "type": "address"
        },
        {
          "internalType": "address[]",
          "name": "minters",
          "type": "address[]"
        }
      ],
      "stateMutability": "nonpayable",
      "type": "constructor"
    },
    {
      "anonymous": false,
      "inputs": [
        {
          "indexed": true,
          "internalType": "address",
          "name": "to",
          "type": "address"
        },
        {
          "indexed": false,
          "internalType": "uint256",
          "name": "amount",
          "type": "uint256"
        }
      ],
      "name": "Distributed",
      "type": "event"
    },
    {
      "anonymous": false,
      "inputs": [
        {
          "indexed": true,
          "internalType": "address",
          "name": "minter",
          "type": "address"
        },
        {
          "indexed": false,
          "internalType": "bool",
          "name": "authorized",
          "type": "bool"
        }
      ],
      "name": "MinterUpdated",
      "type": "event"
    },
    {
      "anonymous": false,
      "inputs": [
        {
          "indexed": true,
          "internalType": "address",
          "name": "previousOwner",
          "type": "address"
        },
        {
          "indexed": true,
          "internalType": "address",
          "name": "newOwner",
          "type": "address"
        }
      ],
      "name": "OwnershipTransferred",
      "type": "event"
    },
    {
      "anonymous": false,
      "inputs": [
        {
          "indexed": false,
          "internalType": "address",
          "name": "account",
          "type": "address"
        }
      ],
      "name": "Paused",
      "type": "event"
    },
    {
      "anonymous": false,
      "inputs": [
        {
          "indexed": true,
          "internalType": "address",
          "name": "to",
          "type": "address"
        },
        {
          "indexed": false,
          "internalType": "uint256",
          "name": "amount",
          "type": "uint256"
        }
      ],
      "name": "RescueETH",
      "type": "event"
    },
    {
      "anonymous": false,
      "inputs": [
        {
          "indexed": true,
          "internalType": "address",
          "name": "token",
          "type": "address"
        },
        {
          "indexed": true,
          "internalType": "address",
          "name": "to",
          "type": "address"
        },
        {
          "indexed": false,
          "internalType": "uint256",
          "name": "amount",
          "type": "uint256"
        }
      ],
      "name": "RescueForeign",
      "type": "event"
    },
    {
      "anonymous": false,
      "inputs": [
        {
          "indexed": false,
          "internalType": "address",
          "name": "account",
          "type": "address"
        }
      ],
      "name": "Unpaused",
      "type": "event"
    },
    {
      "anonymous": false,
      "inputs": [
        {
          "indexed": true,
          "internalType": "address",
          "name": "to",
          "type": "address"
        },
        {
          "indexed": false,
          "internalType": "uint256",
          "name": "amount",
          "type": "uint256"
        }
      ],
      "name": "WithdrawBSTR",
      "type": "event"
    },
    {
      "inputs": [],
      "name": "BSTR",
      "outputs": [
        {
          "internalType": "contract IERC20",
          "name": "",
          "type": "address"
        }
      ],
      "stateMutability": "view",
      "type": "function"
    },
    {
      "inputs": [
        {
          "internalType": "address",
          "name": "to",
          "type": "address"
        },
        {
          "internalType": "uint256",
          "name": "amount",
          "type": "uint256"
        }
      ],
      "name": "distribute",
      "outputs": [],
      "stateMutability": "nonpayable",
      "type": "function"
    },
    {
      "inputs": [
        {
          "internalType": "address",
          "name": "",
          "type": "address"
        }
      ],
      "name": "isMinter",
      "outputs": [
        {
          "internalType": "bool",
          "name": "",
          "type": "bool"
        }
      ],
      "stateMutability": "view",
      "type": "function"
    },
    {
      "inputs": [],
      "name": "owner",
      "outputs": [
        {
          "internalType": "address",
          "name": "",
          "type": "address"
        }
      ],
      "stateMutability": "view",
      "type": "function"
    },
    {
      "inputs": [],
      "name": "pause",
      "outputs": [],
      "stateMutability": "nonpayable",
      "type": "function"
    },
    {
      "inputs": [],
      "name": "paused",
      "outputs": [
        {
          "internalType": "bool",
          "name": "",
          "type": "bool"
        }
      ],
      "stateMutability": "view",
      "type": "function"
    },
    {
      "inputs": [],
      "name": "renounceOwnership",
      "outputs": [],
      "stateMutability": "nonpayable",
      "type": "function"
    },
    {
      "inputs": [
        {
          "internalType": "address",
          "name": "tokenAddress",
          "type": "address"
        },
        {
          "internalType": "address",
          "name": "to",
          "type": "address"
        },
        {
          "internalType": "uint256",
          "name": "amount",
          "type": "uint256"
        }
      ],
      "name": "rescueForeignERC20",
      "outputs": [],
      "stateMutability": "nonpayable",
      "type": "function"
    },
    {
      "inputs": [
        {
          "internalType": "address",
          "name": "minter",
          "type": "address"
        },
        {
          "internalType": "bool",
          "name": "authorized",
          "type": "bool"
        }
      ],
      "name": "setMinter",
      "outputs": [],
      "stateMutability": "nonpayable",
      "type": "function"
    },
    {
      "inputs": [
        {
          "internalType": "address payable",
          "name": "to",
          "type": "address"
        },
        {
          "internalType": "uint256",
          "name": "amount",
          "type": "uint256"
        }
      ],
      "name": "sweepETH",
      "outputs": [],
      "stateMutability": "nonpayable",
      "type": "function"
    },
    {
      "inputs": [],
      "name": "token",
      "outputs": [
        {
          "internalType": "address",
          "name": "",
          "type": "address"
        }
      ],
      "stateMutability": "view",
      "type": "function"
    },
    {
      "inputs": [
        {
          "internalType": "address",
          "name": "newOwner",
          "type": "address"
        }
      ],
      "name": "transferOwnership",
      "outputs": [],
      "stateMutability": "nonpayable",
      "type": "function"
    },
    {
      "inputs": [],
      "name": "unpause",
      "outputs": [],
      "stateMutability": "nonpayable",
      "type": "function"
    },
    {
      "inputs": [
        {
          "internalType": "address",
          "name": "to",
          "type": "address"
        },
        {
          "internalType": "uint256",
          "name": "amount",
          "type": "uint256"
        }
      ],
      "name": "withdrawBSTR",
      "outputs": [],
      "stateMutability": "nonpayable",
      "type": "function"
    },
    {
      "stateMutability": "payable",
      "type": "receive"
    }
  ],
  "transactionHash": "0x8fd9b842cd309fe9280baeb08c6e97ed26f99dcb7685081bd52dd5395ae31077",
  "args": [
    "0xf8492AfeDC885ef3d443F0f51B81B7e70fBCd516",
    "0x296D5897d521Abfd9cE9cC7c3592e302b7C6CB80",
    []
  ],
  "numDeployments": 1,
  "solcInputHash": "b25dd580b444fb77059497707a58b6c5",
  "bytecode": "0x60a06040523480156200001157600080fd5b5060405162001341380380620013418339810160408190526200003491620002a1565b6200003f336200021e565b6000805460ff60a01b19169055600180556001600160a01b038316158015906200007157506001600160a01b03821615155b620000af5760405162461bcd60e51b81526020600482015260096024820152683d32b9379030b2323960b91b60448201526064015b60405180910390fd5b620000ba836200021e565b6001600160a01b03821660805260005b8151811015620002145760006001600160a01b0316828281518110620000f457620000f46200039b565b60200260200101516001600160a01b031603620001425760405162461bcd60e51b815260206004820152600b60248201526a3d32b9379036b4b73a32b960a91b6044820152606401620000a6565b6001600260008484815181106200015d576200015d6200039b565b60200260200101516001600160a01b03166001600160a01b0316815260200190815260200160002060006101000a81548160ff021916908315150217905550818181518110620001b157620001b16200039b565b60200260200101516001600160a01b03167fb21afb9ce9be0a676f8f317ff0ca072fb89a4f8ce2d1b6fe80f8755c14f1cb196001604051620001f7911515815260200190565b60405180910390a2806200020b81620003b1565b915050620000ca565b50505050620003d9565b600080546001600160a01b038381166001600160a01b0319831681178455604051919092169283917f8be0079c531659141344cd1fd0a4f28419497f9722a3daafe3b4186f6b6457e09190a35050565b80516001600160a01b03811681146200028657600080fd5b919050565b634e487b7160e01b600052604160045260246000fd5b600080600060608486031215620002b757600080fd5b620002c2846200026e565b92506020620002d38186016200026e565b60408601519093506001600160401b0380821115620002f157600080fd5b818701915087601f8301126200030657600080fd5b8151818111156200031b576200031b6200028b565b8060051b604051601f19603f830116810181811085821117156200034357620003436200028b565b60405291825284820192508381018501918a8311156200036257600080fd5b938501935b828510156200038b576200037b856200026e565b8452938501939285019262000367565b8096505050505050509250925092565b634e487b7160e01b600052603260045260246000fd5b600060018201620003d257634e487b7160e01b600052601160045260246000fd5b5060010190565b608051610f31620004106000396000818160ff015281816102c70152818161032001528181610677015261080c0152610f316000f3fe6080604052600436106100e15760003560e01c80638da5cb5b1161007f578063e138dc2f11610059578063e138dc2f14610258578063f2fde38b14610278578063fb93210814610298578063fc0c546a146102b857600080fd5b80638da5cb5b146101ea578063aa271e1a14610208578063cf456ae71461023857600080fd5b80635b116ab8116100bb5780635b116ab8146101755780635c975abb14610195578063715018a6146101c05780638456cb59146101d557600080fd5b806337e0a168146100ed5780633f4ba83a1461013e5780634541ccdb1461015557600080fd5b366100e857005b600080fd5b3480156100f957600080fd5b506101217f000000000000000000000000000000000000000000000000000000000000000081565b6040516001600160a01b0390911681526020015b60405180910390f35b34801561014a57600080fd5b506101536102eb565b005b34801561016157600080fd5b50610153610170366004610d72565b61030e565b34801561018157600080fd5b50610153610190366004610db3565b610431565b3480156101a157600080fd5b50600054600160a01b900460ff165b6040519015158152602001610135565b3480156101cc57600080fd5b5061015361054e565b3480156101e157600080fd5b50610153610560565b3480156101f657600080fd5b506000546001600160a01b0316610121565b34801561021457600080fd5b506101b0610223366004610ddf565b60026020526000908152604090205460ff1681565b34801561024457600080fd5b50610153610253366004610e11565b610578565b34801561026457600080fd5b50610153610273366004610db3565b61062c565b34801561028457600080fd5b50610153610293366004610ddf565b6106d9565b3480156102a457600080fd5b506101536102b3366004610db3565b610752565b3480156102c457600080fd5b507f0000000000000000000000000000000000000000000000000000000000000000610121565b6102f361086e565b6102fb6108c8565b610303610921565b61030c60018055565b565b61031661086e565b61031e6108c8565b7f00000000000000000000000000000000000000000000000000000000000000006001600160a01b0316836001600160a01b03160361039c5760405162461bcd60e51b81526020600482015260156024820152742129aa29103b34b0903bb4ba34323930bba129aa2960591b60448201526064015b60405180910390fd5b6001600160a01b0382166103c25760405162461bcd60e51b815260040161039390610e4a565b6103d66001600160a01b0384168383610976565b816001600160a01b0316836001600160a01b03167fa21e2056168df8312832341a611ddf9464f5879bed92d4a9409bfc5bfb7bc51e8360405161041b91815260200190565b60405180910390a361042c60018055565b505050565b61043961086e565b6104416109c8565b6104496108c8565b6001600160a01b03821661046f5760405162461bcd60e51b815260040161039390610e4a565b6000826001600160a01b03168260405160006040518083038185875af1925050503d80600081146104bc576040519150601f19603f3d011682016040523d82523d6000602084013e6104c1565b606091505b50509050806104fd5760405162461bcd60e51b815260206004820152600860248201526732ba34103c3332b960c11b6044820152606401610393565b826001600160a01b03167f77f67778e9529a2fd2147ffb2b10ca2e0d1efd8cb925e1f1d5702e39c5fa8da68360405161053891815260200190565b60405180910390a25061054a60018055565b5050565b61055661086e565b61030c6000610a18565b61056861086e565b6105706108c8565b610303610a68565b61058061086e565b6105886108c8565b6001600160a01b0382166105c75760405162461bcd60e51b8152600401610393906020808252600490820152637a65726f60e01b604082015260600190565b6001600160a01b038216600081815260026020908152604091829020805460ff191685151590811790915591519182527fb21afb9ce9be0a676f8f317ff0ca072fb89a4f8ce2d1b6fe80f8755c14f1cb1991015b60405180910390a261054a60018055565b61063461086e565b61063c6109c8565b6106446108c8565b6001600160a01b03821661066a5760405162461bcd60e51b815260040161039390610e4a565b61069e6001600160a01b037f0000000000000000000000000000000000000000000000000000000000000000168383610976565b816001600160a01b03167fc67818cd19a976c5767116558efc96897195e01de601ed39a9c714ca92a0b9388260405161061b91815260200190565b6106e161086e565b6001600160a01b0381166107465760405162461bcd60e51b815260206004820152602660248201527f4f776e61626c653a206e6577206f776e657220697320746865207a65726f206160448201526564647265737360d01b6064820152608401610393565b61074f81610a18565b50565b61075a610aab565b6107626108c8565b3360009081526002602052604090205460ff166107ae5760405162461bcd60e51b815260206004820152600a6024820152693737ba1036b4b73a32b960b11b6044820152606401610393565b6001600160a01b038216158015906107c65750600081115b6107ff5760405162461bcd60e51b815260206004820152600a60248201526962616420706172616d7360b01b6044820152606401610393565b6108336001600160a01b037f0000000000000000000000000000000000000000000000000000000000000000168383610976565b816001600160a01b03167fb649c98f58055c520df0dcb5709eff2e931217ff2fb1e21376130d31bbb1c0af8260405161061b91815260200190565b6000546001600160a01b0316331461030c5760405162461bcd60e51b815260206004820181905260248201527f4f776e61626c653a2063616c6c6572206973206e6f7420746865206f776e65726044820152606401610393565b60026001540361091a5760405162461bcd60e51b815260206004820152601f60248201527f5265656e7472616e637947756172643a207265656e7472616e742063616c6c006044820152606401610393565b6002600155565b6109296109c8565b6000805460ff60a01b191690557f5db9ee0a495bf2e6ff9c91a7834c1ba4fdd244a5e8aa4e537bd38aeae4b073aa335b6040516001600160a01b03909116815260200160405180910390a1565b604080516001600160a01b038416602482015260448082018490528251808303909101815260649091019091526020810180516001600160e01b031663a9059cbb60e01b17905261042c908490610af8565b600054600160a01b900460ff1661030c5760405162461bcd60e51b815260206004820152601460248201527314185d5cd8589b194e881b9bdd081c185d5cd95960621b6044820152606401610393565b600080546001600160a01b038381166001600160a01b0319831681178455604051919092169283917f8be0079c531659141344cd1fd0a4f28419497f9722a3daafe3b4186f6b6457e09190a35050565b610a70610aab565b6000805460ff60a01b1916600160a01b1790557f62e78cea01bee320cd4e420270b5ea74000d11b0c9f74754ebdbfc544b05a2586109593390565b600054600160a01b900460ff161561030c5760405162461bcd60e51b815260206004820152601060248201526f14185d5cd8589b194e881c185d5cd95960821b6044820152606401610393565b6000610b4d826040518060400160405280602081526020017f5361666545524332303a206c6f772d6c6576656c2063616c6c206661696c6564815250856001600160a01b0316610bcd9092919063ffffffff16565b9050805160001480610b6e575080806020019051810190610b6e9190610e6b565b61042c5760405162461bcd60e51b815260206004820152602a60248201527f5361666545524332303a204552433230206f7065726174696f6e20646964206e6044820152691bdd081cdd58d8d9595960b21b6064820152608401610393565b6060610bdc8484600085610be4565b949350505050565b606082471015610c455760405162461bcd60e51b815260206004820152602660248201527f416464726573733a20696e73756666696369656e742062616c616e636520666f6044820152651c8818d85b1b60d21b6064820152608401610393565b600080866001600160a01b03168587604051610c619190610eac565b60006040518083038185875af1925050503d8060008114610c9e576040519150601f19603f3d011682016040523d82523d6000602084013e610ca3565b606091505b5091509150610cb487838387610cbf565b979650505050505050565b60608315610d2e578251600003610d27576001600160a01b0385163b610d275760405162461bcd60e51b815260206004820152601d60248201527f416464726573733a2063616c6c20746f206e6f6e2d636f6e74726163740000006044820152606401610393565b5081610bdc565b610bdc8383815115610d435781518083602001fd5b8060405162461bcd60e51b81526004016103939190610ec8565b6001600160a01b038116811461074f57600080fd5b600080600060608486031215610d8757600080fd5b8335610d9281610d5d565b92506020840135610da281610d5d565b929592945050506040919091013590565b60008060408385031215610dc657600080fd5b8235610dd181610d5d565b946020939093013593505050565b600060208284031215610df157600080fd5b8135610dfc81610d5d565b9392505050565b801515811461074f57600080fd5b60008060408385031215610e2457600080fd5b8235610e2f81610d5d565b91506020830135610e3f81610e03565b809150509250929050565b6020808252600790820152667a65726f20746f60c81b604082015260600190565b600060208284031215610e7d57600080fd5b8151610dfc81610e03565b60005b83811015610ea3578181015183820152602001610e8b565b50506000910152565b60008251610ebe818460208701610e88565b9190910192915050565b6020815260008251806020840152610ee7816040850160208701610e88565b601f01601f1916919091016040019291505056fea264697066735822122021d128c838a201c396cb55ef399ff1d32641e11bdec69aa735b4b6b94a14cae064736f6c63430008140033",
  "devdoc": {
    "events": {
      "Paused(address)": {
        "details": "Emitted when the pause is triggered by `account`."
      },
      "Unpaused(address)": {
        "details": "Emitted when the pause is lifted by `account`."
      }
    },
    "kind": "dev",
    "methods": {
      "constructor": {
        "params": {
          "_owner": "Contract owner.",
          "bstr": "BSTR ERC20 token address.",
          "minters": "Initial list of authorized mint contracts (can be empty)."
        }
      },
      "owner()": {
        "details": "Returns the address of the current owner."
      },
      "paused()": {
        "details": "Returns true if the contract is paused, and false otherwise."
      },
      "renounceOwnership()": {
        "details": "Leaves the contract without owner. It will not be possible to call `onlyOwner` functions. Can only be called by the current owner. NOTE: Renouncing ownership will leave the contract without an owner, thereby disabling any functionality that is only available to the owner."
      },
      "token()": {
        "details": "For interface-compat with the minter side (IBSTRVault)."
      },
      "transferOwnership(address)": {
        "details": "Transfers ownership of the contract to a new account (`newOwner`). Can only be called by the current owner."
      }
    },
    "title": "BSTRVault",
    "version": 1
  },
  "userdoc": {
    "kind": "user",
    "methods": {
      "distribute(address,uint256)": {
        "notice": "Called by authorized mint contracts to deliver BSTR to a recipient."
      },
      "rescueForeignERC20(address,address,uint256)": {
        "notice": "Rescue any **non-BSTR** ERC20 accidentally sent here (allowed anytime)."
      },
      "setMinter(address,bool)": {
        "notice": "Add/remove a minter contract."
      },
      "withdrawBSTR(address,uint256)": {
        "notice": "Withdraw **BSTR** (only when paused)."
      }
    },
    "notice": "Holds **only BSTR** reward tokens and serves multiple mint contracts.         - Authorized minters call `distribute(to, amount)` while the vault is **not paused**.         - Owner can pause/unpause; withdraw BSTR & sweep ETH **only when paused**.         - Foreign ERC20 (non-BSTR) can be rescued at any time.",
    "version": 1
  },
  "storageLayout": {
    "storage": [
      {
        "astId": 7,
        "contract": "contracts/BSTRVault.sol:BSTRVault",
        "label": "_owner",
        "offset": 0,
        "slot": "0",
        "type": "t_address"
      },
      {
        "astId": 149,
        "contract": "contracts/BSTRVault.sol:BSTRVault",
        "label": "_paused",
        "offset": 20,
        "slot": "0",
        "type": "t_bool"
      },
      {
        "astId": 250,
        "contract": "contracts/BSTRVault.sol:BSTRVault",
        "label": "_status",
        "offset": 0,
        "slot": "1",
        "type": "t_uint256"
      },
      {
        "astId": 4265,
        "contract": "contracts/BSTRVault.sol:BSTRVault",
        "label": "isMinter",
        "offset": 0,
        "slot": "2",
        "type": "t_mapping(t_address,t_bool)"
      }
    ],
    "types": {
      "t_address": {
        "encoding": "inplace",
        "label": "address",
        "numberOfBytes": "20"
      },
      "t_bool": {
        "encoding": "inplace",
        "label": "bool",
        "numberOfBytes": "1"
      },
      "t_mapping(t_address,t_bool)": {
        "encoding": "mapping",
        "key": "t_address",
        "label": "mapping(address => bool)",
        "numberOfBytes": "32",
        "value": "t_bool"
      },
      "t_uint256": {
        "encoding": "inplace",
        "label": "uint256",
        "numberOfBytes": "32"
      }
    }
  }
}