{
  "address": "0xac2b4AA2B6A4C9e34c3A4F039a10eAe57F7cb9C7",
  "abi": [
    {
      "inputs": [
        {
          "internalType": "string",
          "name": "_name",
          "type": "string"
        },
        {
          "internalType": "string",
          "name": "_symbol",
          "type": "string"
        },
        {
          "internalType": "string",
          "name": "baseURI_",
          "type": "string"
        },
        {
          "internalType": "string",
          "name": "contractURI_",
          "type": "string"
        },
        {
          "internalType": "address",
          "name": "initialOwner",
          "type": "address"
        },
        {
          "internalType": "address",
          "name": "usdc_",
          "type": "address"
        },
        {
          "internalType": "address",
          "name": "_fundsReceiver",
          "type": "address"
        },
        {
          "internalType": "uint96",
          "name": "defaultRoyaltyBps",
          "type": "uint96"
        },
        {
          "internalType": "uint256",
          "name": "maxSupply_",
          "type": "uint256"
        },
        {
          "internalType": "uint256",
          "name": "mintPrice_",
          "type": "uint256"
        }
      ],
      "stateMutability": "nonpayable",
      "type": "constructor"
    },
    {
      "anonymous": false,
      "inputs": [
        {
          "indexed": true,
          "internalType": "address",
          "name": "account",
          "type": "address"
        },
        {
          "indexed": true,
          "internalType": "address",
          "name": "operator",
          "type": "address"
        },
        {
          "indexed": false,
          "internalType": "bool",
          "name": "approved",
          "type": "bool"
        }
      ],
      "name": "ApprovalForAll",
      "type": "event"
    },
    {
      "anonymous": false,
      "inputs": [
        {
          "indexed": true,
          "internalType": "address",
          "name": "token",
          "type": "address"
        }
      ],
      "name": "BSTRSet",
      "type": "event"
    },
    {
      "anonymous": false,
      "inputs": [
        {
          "indexed": false,
          "internalType": "string",
          "name": "uri",
          "type": "string"
        }
      ],
      "name": "BaseURISet",
      "type": "event"
    },
    {
      "anonymous": false,
      "inputs": [
        {
          "indexed": false,
          "internalType": "string",
          "name": "uri",
          "type": "string"
        }
      ],
      "name": "ContractURISet",
      "type": "event"
    },
    {
      "anonymous": false,
      "inputs": [
        {
          "indexed": true,
          "internalType": "address",
          "name": "receiver",
          "type": "address"
        }
      ],
      "name": "FundsReceiverSet",
      "type": "event"
    },
    {
      "anonymous": false,
      "inputs": [],
      "name": "MetadataFrozen",
      "type": "event"
    },
    {
      "anonymous": false,
      "inputs": [
        {
          "indexed": false,
          "internalType": "uint256",
          "name": "price",
          "type": "uint256"
        }
      ],
      "name": "MintPriceSet",
      "type": "event"
    },
    {
      "anonymous": false,
      "inputs": [
        {
          "indexed": true,
          "internalType": "address",
          "name": "previousOwner",
          "type": "address"
        },
        {
          "indexed": true,
          "internalType": "address",
          "name": "newOwner",
          "type": "address"
        }
      ],
      "name": "OwnershipTransferred",
      "type": "event"
    },
    {
      "anonymous": false,
      "inputs": [
        {
          "indexed": false,
          "internalType": "address",
          "name": "account",
          "type": "address"
        }
      ],
      "name": "Paused",
      "type": "event"
    },
    {
      "anonymous": false,
      "inputs": [
        {
          "indexed": false,
          "internalType": "bool",
          "name": "enabled",
          "type": "bool"
        },
        {
          "indexed": false,
          "internalType": "bool",
          "name": "onAirdrop",
          "type": "bool"
        },
        {
          "indexed": false,
          "internalType": "bool",
          "name": "strict",
          "type": "bool"
        }
      ],
      "name": "RewardFlagsSet",
      "type": "event"
    },
    {
      "anonymous": false,
      "inputs": [
        {
          "indexed": false,
          "internalType": "uint256",
          "name": "amount",
          "type": "uint256"
        }
      ],
      "name": "RewardPerUnitSet",
      "type": "event"
    },
    {
      "anonymous": false,
      "inputs": [
        {
          "indexed": true,
          "internalType": "address",
          "name": "to",
          "type": "address"
        },
        {
          "indexed": false,
          "internalType": "uint256",
          "name": "amount",
          "type": "uint256"
        }
      ],
      "name": "RewardSent",
      "type": "event"
    },
    {
      "anonymous": false,
      "inputs": [
        {
          "indexed": true,
          "internalType": "address",
          "name": "to",
          "type": "address"
        },
        {
          "indexed": false,
          "internalType": "uint256",
          "name": "required",
          "type": "uint256"
        },
        {
          "indexed": false,
          "internalType": "uint256",
          "name": "available",
          "type": "uint256"
        }
      ],
      "name": "RewardSkipped",
      "type": "event"
    },
    {
      "anonymous": false,
      "inputs": [
        {
          "indexed": true,
          "internalType": "address",
          "name": "vault",
          "type": "address"
        },
        {
          "indexed": false,
          "internalType": "bool",
          "name": "isContract",
          "type": "bool"
        }
      ],
      "name": "RewardVaultSet",
      "type": "event"
    },
    {
      "anonymous": false,
      "inputs": [
        {
          "indexed": false,
          "internalType": "bool",
          "name": "active",
          "type": "bool"
        }
      ],
      "name": "SaleStateSet",
      "type": "event"
    },
    {
      "anonymous": false,
      "inputs": [
        {
          "indexed": true,
          "internalType": "address",
          "name": "operator",
          "type": "address"
        },
        {
          "indexed": true,
          "internalType": "address",
          "name": "from",
          "type": "address"
        },
        {
          "indexed": true,
          "internalType": "address",
          "name": "to",
          "type": "address"
        },
        {
          "indexed": false,
          "internalType": "uint256[]",
          "name": "ids",
          "type": "uint256[]"
        },
        {
          "indexed": false,
          "internalType": "uint256[]",
          "name": "values",
          "type": "uint256[]"
        }
      ],
      "name": "TransferBatch",
      "type": "event"
    },
    {
      "anonymous": false,
      "inputs": [
        {
          "indexed": true,
          "internalType": "address",
          "name": "operator",
          "type": "address"
        },
        {
          "indexed": true,
          "internalType": "address",
          "name": "from",
          "type": "address"
        },
        {
          "indexed": true,
          "internalType": "address",
          "name": "to",
          "type": "address"
        },
        {
          "indexed": false,
          "internalType": "uint256",
          "name": "id",
          "type": "uint256"
        },
        {
          "indexed": false,
          "internalType": "uint256",
          "name": "value",
          "type": "uint256"
        }
      ],
      "name": "TransferSingle",
      "type": "event"
    },
    {
      "anonymous": false,
      "inputs": [
        {
          "indexed": false,
          "internalType": "string",
          "name": "value",
          "type": "string"
        },
        {
          "indexed": true,
          "internalType": "uint256",
          "name": "id",
          "type": "uint256"
        }
      ],
      "name": "URI",
      "type": "event"
    },
    {
      "anonymous": false,
      "inputs": [
        {
          "indexed": false,
          "internalType": "address",
          "name": "account",
          "type": "address"
        }
      ],
      "name": "Unpaused",
      "type": "event"
    },
    {
      "inputs": [],
      "name": "BSTR",
      "outputs": [
        {
          "internalType": "contract IERC20",
          "name": "",
          "type": "address"
        }
      ],
      "stateMutability": "view",
      "type": "function"
    },
    {
      "inputs": [],
      "name": "MAX_SUPPLY",
      "outputs": [
        {
          "internalType": "uint256",
          "name": "",
          "type": "uint256"
        }
      ],
      "stateMutability": "view",
      "type": "function"
    },
    {
      "inputs": [],
      "name": "TOKEN_ID",
      "outputs": [
        {
          "internalType": "uint256",
          "name": "",
          "type": "uint256"
        }
      ],
      "stateMutability": "view",
      "type": "function"
    },
    {
      "inputs": [],
      "name": "USDC",
      "outputs": [
        {
          "internalType": "contract IERC20",
          "name": "",
          "type": "address"
        }
      ],
      "stateMutability": "view",
      "type": "function"
    },
    {
      "inputs": [
        {
          "internalType": "address[]",
          "name": "recipients",
          "type": "address[]"
        },
        {
          "internalType": "uint256[]",
          "name": "amounts",
          "type": "uint256[]"
        }
      ],
      "name": "airdrop",
      "outputs": [],
      "stateMutability": "nonpayable",
      "type": "function"
    },
    {
      "inputs": [],
      "name": "airdropFlag",
      "outputs": [
        {
          "internalType": "bool",
          "name": "",
          "type": "bool"
        }
      ],
      "stateMutability": "view",
      "type": "function"
    },
    {
      "inputs": [
        {
          "internalType": "address",
          "name": "account",
          "type": "address"
        },
        {
          "internalType": "uint256",
          "name": "id",
          "type": "uint256"
        }
      ],
      "name": "balanceOf",
      "outputs": [
        {
          "internalType": "uint256",
          "name": "",
          "type": "uint256"
        }
      ],
      "stateMutability": "view",
      "type": "function"
    },
    {
      "inputs": [
        {
          "internalType": "address[]",
          "name": "accounts",
          "type": "address[]"
        },
        {
          "internalType": "uint256[]",
          "name": "ids",
          "type": "uint256[]"
        }
      ],
      "name": "balanceOfBatch",
      "outputs": [
        {
          "internalType": "uint256[]",
          "name": "",
          "type": "uint256[]"
        }
      ],
      "stateMutability": "view",
      "type": "function"
    },
    {
      "inputs": [
        {
          "internalType": "address",
          "name": "account",
          "type": "address"
        }
      ],
      "name": "balanceOfKey",
      "outputs": [
        {
          "internalType": "uint256",
          "name": "",
          "type": "uint256"
        }
      ],
      "stateMutability": "view",
      "type": "function"
    },
    {
      "inputs": [
        {
          "internalType": "address",
          "name": "account",
          "type": "address"
        },
        {
          "internalType": "uint256",
          "name": "id",
          "type": "uint256"
        },
        {
          "internalType": "uint256",
          "name": "value",
          "type": "uint256"
        }
      ],
      "name": "burn",
      "outputs": [],
      "stateMutability": "nonpayable",
      "type": "function"
    },
    {
      "inputs": [
        {
          "internalType": "address",
          "name": "account",
          "type": "address"
        },
        {
          "internalType": "uint256[]",
          "name": "ids",
          "type": "uint256[]"
        },
        {
          "internalType": "uint256[]",
          "name": "values",
          "type": "uint256[]"
        }
      ],
      "name": "burnBatch",
      "outputs": [],
      "stateMutability": "nonpayable",
      "type": "function"
    },
    {
      "inputs": [],
      "name": "contractURI",
      "outputs": [
        {
          "internalType": "string",
          "name": "",
          "type": "string"
        }
      ],
      "stateMutability": "view",
      "type": "function"
    },
    {
      "inputs": [],
      "name": "deleteDefaultRoyalty",
      "outputs": [],
      "stateMutability": "nonpayable",
      "type": "function"
    },
    {
      "inputs": [
        {
          "internalType": "uint256",
          "name": "id",
          "type": "uint256"
        }
      ],
      "name": "exists",
      "outputs": [
        {
          "internalType": "bool",
          "name": "",
          "type": "bool"
        }
      ],
      "stateMutability": "view",
      "type": "function"
    },
    {
      "inputs": [],
      "name": "freezeMetadata",
      "outputs": [],
      "stateMutability": "nonpayable",
      "type": "function"
    },
    {
      "inputs": [],
      "name": "fundsReceiver",
      "outputs": [
        {
          "internalType": "address",
          "name": "",
          "type": "address"
        }
      ],
      "stateMutability": "view",
      "type": "function"
    },
    {
      "inputs": [
        {
          "internalType": "address",
          "name": "account",
          "type": "address"
        },
        {
          "internalType": "address",
          "name": "operator",
          "type": "address"
        }
      ],
      "name": "isApprovedForAll",
      "outputs": [
        {
          "internalType": "bool",
          "name": "",
          "type": "bool"
        }
      ],
      "stateMutability": "view",
      "type": "function"
    },
    {
      "inputs": [],
      "name": "maxSupply",
      "outputs": [
        {
          "internalType": "uint256",
          "name": "",
          "type": "uint256"
        }
      ],
      "stateMutability": "view",
      "type": "function"
    },
    {
      "inputs": [],
      "name": "metadataFrozen",
      "outputs": [
        {
          "internalType": "bool",
          "name": "",
          "type": "bool"
        }
      ],
      "stateMutability": "view",
      "type": "function"
    },
    {
      "inputs": [
        {
          "internalType": "uint256",
          "name": "amount",
          "type": "uint256"
        }
      ],
      "name": "mint",
      "outputs": [],
      "stateMutability": "nonpayable",
      "type": "function"
    },
    {
      "inputs": [],
      "name": "mintPrice",
      "outputs": [
        {
          "internalType": "uint256",
          "name": "",
          "type": "uint256"
        }
      ],
      "stateMutability": "view",
      "type": "function"
    },
    {
      "inputs": [],
      "name": "name",
      "outputs": [
        {
          "internalType": "string",
          "name": "",
          "type": "string"
        }
      ],
      "stateMutability": "view",
      "type": "function"
    },
    {
      "inputs": [],
      "name": "owner",
      "outputs": [
        {
          "internalType": "address",
          "name": "",
          "type": "address"
        }
      ],
      "stateMutability": "view",
      "type": "function"
    },
    {
      "inputs": [
        {
          "internalType": "address",
          "name": "to",
          "type": "address"
        },
        {
          "internalType": "uint256",
          "name": "amount",
          "type": "uint256"
        }
      ],
      "name": "ownerMint",
      "outputs": [],
      "stateMutability": "nonpayable",
      "type": "function"
    },
    {
      "inputs": [],
      "name": "pause",
      "outputs": [],
      "stateMutability": "nonpayable",
      "type": "function"
    },
    {
      "inputs": [],
      "name": "paused",
      "outputs": [
        {
          "internalType": "bool",
          "name": "",
          "type": "bool"
        }
      ],
      "stateMutability": "view",
      "type": "function"
    },
    {
      "inputs": [],
      "name": "renounceOwnership",
      "outputs": [],
      "stateMutability": "nonpayable",
      "type": "function"
    },
    {
      "inputs": [
        {
          "internalType": "address",
          "name": "token",
          "type": "address"
        },
        {
          "internalType": "uint256",
          "name": "amount",
          "type": "uint256"
        }
      ],
      "name": "rescueERC20",
      "outputs": [],
      "stateMutability": "nonpayable",
      "type": "function"
    },
    {
      "inputs": [],
      "name": "rescueETH",
      "outputs": [],
      "stateMutability": "nonpayable",
      "type": "function"
    },
    {
      "inputs": [],
      "name": "rewardCapacity",
      "outputs": [
        {
          "internalType": "uint256",
          "name": "units",
          "type": "uint256"
        }
      ],
      "stateMutability": "view",
      "type": "function"
    },
    {
      "inputs": [],
      "name": "rewardConfig",
      "outputs": [
        {
          "internalType": "address",
          "name": "bstr",
          "type": "address"
        },
        {
          "internalType": "address",
          "name": "vault",
          "type": "address"
        },
        {
          "internalType": "bool",
          "name": "isContract",
          "type": "bool"
        },
        {
          "internalType": "uint256",
          "name": "perUnit",
          "type": "uint256"
        },
        {
          "internalType": "bool",
          "name": "enabled",
          "type": "bool"
        },
        {
          "internalType": "bool",
          "name": "onAirdrop",
          "type": "bool"
        },
        {
          "internalType": "bool",
          "name": "strict",
          "type": "bool"
        }
      ],
      "stateMutability": "view",
      "type": "function"
    },
    {
      "inputs": [],
      "name": "rewardEnabled",
      "outputs": [
        {
          "internalType": "bool",
          "name": "",
          "type": "bool"
        }
      ],
      "stateMutability": "view",
      "type": "function"
    },
    {
      "inputs": [],
      "name": "rewardOnAirdrop",
      "outputs": [
        {
          "internalType": "bool",
          "name": "",
          "type": "bool"
        }
      ],
      "stateMutability": "view",
      "type": "function"
    },
    {
      "inputs": [],
      "name": "rewardPerUnit",
      "outputs": [
        {
          "internalType": "uint256",
          "name": "",
          "type": "uint256"
        }
      ],
      "stateMutability": "view",
      "type": "function"
    },
    {
      "inputs": [],
      "name": "rewardRevertIfInsufficient",
      "outputs": [
        {
          "internalType": "bool",
          "name": "",
          "type": "bool"
        }
      ],
      "stateMutability": "view",
      "type": "function"
    },
    {
      "inputs": [
        {
          "internalType": "uint256",
          "name": "units",
          "type": "uint256"
        }
      ],
      "name": "rewardStatusForMint",
      "outputs": [
        {
          "internalType": "bool",
          "name": "active",
          "type": "bool"
        },
        {
          "internalType": "uint256",
          "name": "perUnit",
          "type": "uint256"
        },
        {
          "internalType": "uint256",
          "name": "totalRewards",
          "type": "uint256"
        },
        {
          "internalType": "bool",
          "name": "viaVault",
          "type": "bool"
        },
        {
          "internalType": "address",
          "name": "vault",
          "type": "address"
        },
        {
          "internalType": "uint256",
          "name": "availableUnits",
          "type": "uint256"
        }
      ],
      "stateMutability": "view",
      "type": "function"
    },
    {
      "inputs": [],
      "name": "rewardVault",
      "outputs": [
        {
          "internalType": "address",
          "name": "",
          "type": "address"
        }
      ],
      "stateMutability": "view",
      "type": "function"
    },
    {
      "inputs": [],
      "name": "rewardVaultIsContract",
      "outputs": [
        {
          "internalType": "bool",
          "name": "",
          "type": "bool"
        }
      ],
      "stateMutability": "view",
      "type": "function"
    },
    {
      "inputs": [
        {
          "internalType": "uint256",
          "name": "tokenId",
          "type": "uint256"
        },
        {
          "internalType": "uint256",
          "name": "salePrice",
          "type": "uint256"
        }
      ],
      "name": "royaltyInfo",
      "outputs": [
        {
          "internalType": "address",
          "name": "",
          "type": "address"
        },
        {
          "internalType": "uint256",
          "name": "",
          "type": "uint256"
        }
      ],
      "stateMutability": "view",
      "type": "function"
    },
    {
      "inputs": [
        {
          "internalType": "address",
          "name": "from",
          "type": "address"
        },
        {
          "internalType": "address",
          "name": "to",
          "type": "address"
        },
        {
          "internalType": "uint256[]",
          "name": "ids",
          "type": "uint256[]"
        },
        {
          "internalType": "uint256[]",
          "name": "amounts",
          "type": "uint256[]"
        },
        {
          "internalType": "bytes",
          "name": "data",
          "type": "bytes"
        }
      ],
      "name": "safeBatchTransferFrom",
      "outputs": [],
      "stateMutability": "nonpayable",
      "type": "function"
    },
    {
      "inputs": [
        {
          "internalType": "address",
          "name": "from",
          "type": "address"
        },
        {
          "internalType": "address",
          "name": "to",
          "type": "address"
        },
        {
          "internalType": "uint256",
          "name": "id",
          "type": "uint256"
        },
        {
          "internalType": "uint256",
          "name": "amount",
          "type": "uint256"
        },
        {
          "internalType": "bytes",
          "name": "data",
          "type": "bytes"
        }
      ],
      "name": "safeTransferFrom",
      "outputs": [],
      "stateMutability": "nonpayable",
      "type": "function"
    },
    {
      "inputs": [],
      "name": "saleActive",
      "outputs": [
        {
          "internalType": "bool",
          "name": "",
          "type": "bool"
        }
      ],
      "stateMutability": "view",
      "type": "function"
    },
    {
      "inputs": [
        {
          "internalType": "address",
          "name": "operator",
          "type": "address"
        },
        {
          "internalType": "bool",
          "name": "approved",
          "type": "bool"
        }
      ],
      "name": "setApprovalForAll",
      "outputs": [],
      "stateMutability": "nonpayable",
      "type": "function"
    },
    {
      "inputs": [
        {
          "internalType": "address",
          "name": "token",
          "type": "address"
        }
      ],
      "name": "setBSTR",
      "outputs": [],
      "stateMutability": "nonpayable",
      "type": "function"
    },
    {
      "inputs": [
        {
          "internalType": "string",
          "name": "newBase",
          "type": "string"
        }
      ],
      "name": "setBaseURI",
      "outputs": [],
      "stateMutability": "nonpayable",
      "type": "function"
    },
    {
      "inputs": [
        {
          "internalType": "string",
          "name": "newContractURI",
          "type": "string"
        }
      ],
      "name": "setContractURI",
      "outputs": [],
      "stateMutability": "nonpayable",
      "type": "function"
    },
    {
      "inputs": [
        {
          "internalType": "address",
          "name": "receiver",
          "type": "address"
        },
        {
          "internalType": "uint96",
          "name": "feeNumerator",
          "type": "uint96"
        }
      ],
      "name": "setDefaultRoyalty",
      "outputs": [],
      "stateMutability": "nonpayable",
      "type": "function"
    },
    {
      "inputs": [
        {
          "internalType": "address",
          "name": "receiver",
          "type": "address"
        }
      ],
      "name": "setFundsReceiver",
      "outputs": [],
      "stateMutability": "nonpayable",
      "type": "function"
    },
    {
      "inputs": [
        {
          "internalType": "uint256",
          "name": "price",
          "type": "uint256"
        }
      ],
      "name": "setMintPrice",
      "outputs": [],
      "stateMutability": "nonpayable",
      "type": "function"
    },
    {
      "inputs": [
        {
          "internalType": "bool",
          "name": "enabled",
          "type": "bool"
        },
        {
          "internalType": "bool",
          "name": "onAirdrop",
          "type": "bool"
        },
        {
          "internalType": "bool",
          "name": "strict",
          "type": "bool"
        }
      ],
      "name": "setRewardFlags",
      "outputs": [],
      "stateMutability": "nonpayable",
      "type": "function"
    },
    {
      "inputs": [
        {
          "internalType": "uint256",
          "name": "amount",
          "type": "uint256"
        }
      ],
      "name": "setRewardPerUnit",
      "outputs": [],
      "stateMutability": "nonpayable",
      "type": "function"
    },
    {
      "inputs": [
        {
          "internalType": "address",
          "name": "vault",
          "type": "address"
        },
        {
          "internalType": "bool",
          "name": "isContractVault",
          "type": "bool"
        }
      ],
      "name": "setRewardVault",
      "outputs": [],
      "stateMutability": "nonpayable",
      "type": "function"
    },
    {
      "inputs": [
        {
          "internalType": "bool",
          "name": "active",
          "type": "bool"
        }
      ],
      "name": "setSaleActive",
      "outputs": [],
      "stateMutability": "nonpayable",
      "type": "function"
    },
    {
      "inputs": [
        {
          "internalType": "bytes4",
          "name": "interfaceId",
          "type": "bytes4"
        }
      ],
      "name": "supportsInterface",
      "outputs": [
        {
          "internalType": "bool",
          "name": "",
          "type": "bool"
        }
      ],
      "stateMutability": "view",
      "type": "function"
    },
    {
      "inputs": [],
      "name": "symbol",
      "outputs": [
        {
          "internalType": "string",
          "name": "",
          "type": "string"
        }
      ],
      "stateMutability": "view",
      "type": "function"
    },
    {
      "inputs": [],
      "name": "totalMinted",
      "outputs": [
        {
          "internalType": "uint256",
          "name": "",
          "type": "uint256"
        }
      ],
      "stateMutability": "view",
      "type": "function"
    },
    {
      "inputs": [
        {
          "internalType": "uint256",
          "name": "id",
          "type": "uint256"
        }
      ],
      "name": "totalSupply",
      "outputs": [
        {
          "internalType": "uint256",
          "name": "",
          "type": "uint256"
        }
      ],
      "stateMutability": "view",
      "type": "function"
    },
    {
      "inputs": [
        {
          "internalType": "address",
          "name": "newOwner",
          "type": "address"
        }
      ],
      "name": "transferOwnership",
      "outputs": [],
      "stateMutability": "nonpayable",
      "type": "function"
    },
    {
      "inputs": [],
      "name": "unpause",
      "outputs": [],
      "stateMutability": "nonpayable",
      "type": "function"
    },
    {
      "inputs": [
        {
          "internalType": "uint256",
          "name": "id",
          "type": "uint256"
        }
      ],
      "name": "uri",
      "outputs": [
        {
          "internalType": "string",
          "name": "",
          "type": "string"
        }
      ],
      "stateMutability": "view",
      "type": "function"
    }
  ],
  "transactionHash": "0x5fdd3d9487fa05d87279c3607644b8cc6238f5adc3255d8e7050164b3c7994ba",
  "args": [
    "DRVN Carbon Key",
    "Carbon",
    "https://drvnlabo.mypinata.cloud/ipfs/bafkreihvtv2nk42zselxofww2dibs6r32x6yudwhzjrcqon33iorqgjxpi/",
    "https://drvnlabo.mypinata.cloud/ipfs/bafkreiepwquub22atfdxloyqca5hlakn4nzps42re4nvdtwtfefonbkcxi/",
    "0xf8492AfeDC885ef3d443F0f51B81B7e70fBCd516",
    "0x94d07C7Aa3F8910ACeF21300098DA9171d06220C",
    "0xf8492AfeDC885ef3d443F0f51B81B7e70fBCd516",
    500,
    24,
    "1100000000"
  ],
  "numDeployments": 1,
  "solcInputHash": "5211a7391b77cbdcb99e6758edb38b6d",
  "bytecode": "0x60c06040523480156200001157600080fd5b5060405162004a9138038062004a91833981016040819052620000349162000470565b6040805160208101909152600081526200004e8162000211565b506200005a3362000223565b6006805460ff60a01b1916905560016007556001600160a01b038616620000b25760405162461bcd60e51b815260206004820152600760248201526604f776e65723d360cc1b60448201526064015b60405180910390fd5b6001600160a01b038516620000f35760405162461bcd60e51b81526020600482015260066024820152650555344433d360d41b6044820152606401620000a9565b6001600160a01b038416620001385760405162461bcd60e51b815260206004820152600a602482015269052656365697665723d360b41b6044820152606401620000a9565b60008211620001785760405162461bcd60e51b815260206004820152600b60248201526a06d6178537570706c793d360ac1b6044820152606401620000a9565b6008620001868b8262000618565b506009620001958a8262000618565b506010620001a4898262000618565b506011620001b3888262000618565b506001600160a01b0380861660a052600b805491861661010002610100600160a81b03199092169190911790556080829052600a819055620001f58662000223565b62000201848462000275565b50505050505050505050620006e4565b60026200021f828262000618565b5050565b600680546001600160a01b038381166001600160a01b0319831681179093556040519116919082907f8be0079c531659141344cd1fd0a4f28419497f9722a3daafe3b4186f6b6457e090600090a35050565b6127106001600160601b0382161115620002e55760405162461bcd60e51b815260206004820152602a60248201527f455243323938313a20726f79616c7479206665652077696c6c206578636565646044820152692073616c65507269636560b01b6064820152608401620000a9565b6001600160a01b0382166200033d5760405162461bcd60e51b815260206004820152601960248201527f455243323938313a20696e76616c6964207265636569766572000000000000006044820152606401620000a9565b604080518082019091526001600160a01b039092168083526001600160601b039091166020909201829052600160a01b90910217600455565b634e487b7160e01b600052604160045260246000fd5b600082601f8301126200039e57600080fd5b81516001600160401b0380821115620003bb57620003bb62000376565b604051601f8301601f19908116603f01168101908282118183101715620003e657620003e662000376565b816040528381526020925086838588010111156200040357600080fd5b600091505b8382101562000427578582018301518183018401529082019062000408565b600093810190920192909252949350505050565b80516001600160a01b03811681146200045357600080fd5b919050565b80516001600160601b03811681146200045357600080fd5b6000806000806000806000806000806101408b8d0312156200049157600080fd5b8a516001600160401b0380821115620004a957600080fd5b620004b78e838f016200038c565b9b5060208d0151915080821115620004ce57600080fd5b620004dc8e838f016200038c565b9a5060408d0151915080821115620004f357600080fd5b620005018e838f016200038c565b995060608d01519150808211156200051857600080fd5b50620005278d828e016200038c565b9750506200053860808c016200043b565b95506200054860a08c016200043b565b94506200055860c08c016200043b565b93506200056860e08c0162000458565b92506101008b015191506101208b015190509295989b9194979a5092959850565b600181811c908216806200059e57607f821691505b602082108103620005bf57634e487b7160e01b600052602260045260246000fd5b50919050565b601f8211156200061357600081815260208120601f850160051c81016020861015620005ee5750805b601f850160051c820191505b818110156200060f57828155600101620005fa565b5050505b505050565b81516001600160401b0381111562000634576200063462000376565b6200064c8162000645845462000589565b84620005c5565b602080601f8311600181146200068457600084156200066b5750858301515b600019600386901b1c1916600185901b1785556200060f565b600085815260208120601f198616915b82811015620006b55788860151825594840194600190910190840162000694565b5085821015620006d45787850151600019600388901b60f8161c191681555b5050505050600190811b01905550565b60805160a0516143646200072d60003960008181610715015261172e0152600081816104d00152818161081a01528181610d74015281816112a301526116c101526143646000f3fe608060405234801561001057600080fd5b50600436106103a35760003560e01c80636b20c454116101e9578063bd6e7e741161010f578063e8a3d485116100ad578063f2fde38b1161007c578063f2fde38b146108c4578063f4a0a528146108d7578063f5298aca146108ea578063fb3cc6c2146108fd57600080fd5b8063e8a3d4851461085a578063e985e9c514610862578063e9f165e91461089e578063f242432a146108b157600080fd5b8063d111515d116100e9578063d111515d14610810578063d5abeb0114610818578063da79d95f1461083e578063dfe138a61461085157600080fd5b8063bd6e7e74146107cb578063bd85b039146107dd578063bfe18d23146107fd57600080fd5b80638cd4426d11610187578063a0712d6811610156578063a0712d681461077e578063a22cb46514610791578063a2309ff8146107a4578063aa1b103f146107c357600080fd5b80638cd4426d1461073f5780638da5cb5b14610752578063938e3d7b1461076357806395d89b411461077657600080fd5b8063841718a6116101c3578063841718a6146106f55780638456cb591461070857806389a302711461071057806389a890021461073757600080fd5b80636b20c454146106d25780636b9b7fc9146106e5578063715018a6146106ed57600080fd5b80633f4ba83a116102ce57806355f804b31161026c578063672434821161023b57806367243482146106965780636817c76c146106a957806368428a1b146106b2578063688893c2146106bf57600080fd5b806355f804b31461064b5780635c975abb1461065e5780635d45793214610670578063600b76c41461068357600080fd5b80634e1273f4116102a85780634e1273f41461054f5780634e94c2851461056f5780634f558e79146105dc57806351d74669146105fe57600080fd5b80633f4ba83a14610520578063484b973c146105285780634c7e15371461053b57600080fd5b806320800a001161034657806332cb6b0c1161031557806332cb6b0c146104cb57806334962f1b146104f257806337e0a168146104fa5780633a2c67771461050d57600080fd5b806320800a001461044e57806323c7e09c146104565780632a55205a146104865780632eb2c2d6146104b857600080fd5b806306fdde031161038257806306fdde03146104065780630e89341c1461041b578063141edd581461042e57806317ee69951461044157600080fd5b8062fdd58e146103a857806301ffc9a7146103ce57806304634d8d146103f1575b600080fd5b6103bb6103b63660046134b0565b61090a565b6040519081526020015b60405180910390f35b6103e16103dc3660046134f2565b6109a3565b60405190151581526020016103c5565b6104046103ff366004613516565b6109ae565b005b61040e6109d6565b6040516103c591906135ab565b61040e6104293660046135be565b610a64565b61040461043c3660046135d7565b610ad7565b600f546103e19060ff1681565b610404610b86565b600b5461046e9061010090046001600160a01b031681565b6040516001600160a01b0390911681526020016103c5565b6104996104943660046135f4565b610bd3565b604080516001600160a01b0390931683526020830191909152016103c5565b6104046104c636600461375f565b610c81565b6103bb7f000000000000000000000000000000000000000000000000000000000000000081565b6103e1610ccd565b600c5461046e906001600160a01b031681565b600d5461046e906001600160a01b031681565b610404610ce9565b6104046105363660046134b0565b610d0d565b600d546103e190600160a01b900460ff1681565b61056261055d36600461380c565b610e1c565b6040516103c59190613913565b600c54600d54600e54600f54604080516001600160a01b039586168152948416602086015260ff600160a01b909404841615159085015260608401919091528181161515608084015261010081048216151560a084015262010000900416151560c082015260e0016103c5565b6103e16105ea3660046135be565b600090815260036020526040902054151590565b61061161060c3660046135be565b610f45565b604080519615158752602087019590955293850192909252151560608401526001600160a01b0316608083015260a082015260c0016103c5565b610404610659366004613926565b610fd4565b600654600160a01b900460ff166103e1565b61040461067e3660046135d7565b611071565b600f546103e19062010000900460ff1681565b6104046106a43660046139db565b6111b8565b6103bb600a5481565b600b546103e19060ff1681565b6103bb6106cd3660046135d7565b6113f1565b6104046106e0366004613a46565b6113fe565b6103bb611446565b61040461148f565b610404610703366004613ac9565b6114a1565b610404611500565b61046e7f000000000000000000000000000000000000000000000000000000000000000081565b6103bb600181565b61040461074d3660046134b0565b611518565b6006546001600160a01b031661046e565b610404610771366004613926565b611547565b61040e6115d2565b61040461078c3660046135be565b6115df565b61040461079f366004613ae6565b6117b1565b6001600052600360205260008051602061430f833981519152546103bb565b6104046117bc565b600f546103e190610100900460ff1681565b6103bb6107eb3660046135be565b60009081526003602052604090205490565b61040461080b366004613b14565b6117d6565b61040461186a565b7f00000000000000000000000000000000000000000000000000000000000000006103bb565b61040461084c3660046135be565b6118ba565b6103bb600e5481565b61040e611950565b6103e1610870366004613b5f565b6001600160a01b03918216600090815260016020908152604080832093909416825291909152205460ff1690565b6104046108ac366004613ae6565b6119e2565b6104046108bf366004613b8d565b611c01565b6104046108d23660046135d7565b611c46565b6104046108e53660046135be565b611cbc565b6104046108f8366004613bf5565b611d01565b6012546103e19060ff1681565b60006001600160a01b03831661097a5760405162461bcd60e51b815260206004820152602a60248201527f455243313135353a2061646472657373207a65726f206973206e6f742061207660448201526930b634b21037bbb732b960b11b60648201526084015b60405180910390fd5b506000818152602081815260408083206001600160a01b03861684529091529020545b92915050565b600061099d82611d44565b6109b6611d69565b6109be611dc3565b6109c88282611e1c565b6109d26001600755565b5050565b600880546109e390613c2a565b80601f0160208091040260200160405190810160405280929190818152602001828054610a0f90613c2a565b8015610a5c5780601f10610a3157610100808354040283529160200191610a5c565b820191906000526020600020905b815481529060010190602001808311610a3f57829003601f168201915b505050505081565b606060018214610aa45760405162461bcd60e51b815260206004820152600b60248201526a109859081d1bdad95b925960aa1b6044820152606401610971565b6010610ab06001611f19565b604051602001610ac1929190613c64565b6040516020818303038152906040529050919050565b610adf611d69565b610ae7611dc3565b6001600160a01b038116610b2a5760405162461bcd60e51b815260206004820152600a602482015269052656365697665723d360b41b6044820152606401610971565b600b8054610100600160a81b0319166101006001600160a01b038416908102919091179091556040517f3663a6993eaad4d30ebee7142f0dcd6d4d1d781b0c2adabb355184a2cab23af490600090a2610b836001600755565b50565b610b8e611d69565b478015610b8357600b546040516101009091046001600160a01b0316906108fc8315029083906000818181858888f193505050501580156109d2573d6000803e3d6000fd5b60008281526005602090815260408083208151808301909252546001600160a01b038116808352600160a01b9091046001600160601b0316928201929092528291610c485750604080518082019091526004546001600160a01b0381168252600160a01b90046001600160601b031660208201525b602081015160009061271090610c67906001600160601b031687613d11565b610c719190613d3e565b91519350909150505b9250929050565b6001600160a01b038516331480610c9d5750610c9d8533610870565b610cb95760405162461bcd60e51b815260040161097190613d52565b610cc68585858585611fab565b5050505050565b600f5460009060ff168015610ce457506000600e54115b905090565b610cf1611d69565b610cf9611dc3565b610d01612155565b610d0b6001600755565b565b610d15611d69565b610d1d611dc3565b60008111610d585760405162461bcd60e51b81526020600482015260086024820152670416d6f756e743d360c41b6044820152606401610971565b6001600052600360205260008051602061430f833981519152547f000000000000000000000000000000000000000000000000000000000000000090610d9f908390613da0565b1115610dbd5760405162461bcd60e51b815260040161097190613db3565b610dd982600183604051806020016040528060008152506121aa565b600f5460ff168015610df25750600f54610100900460ff165b8015610e0057506000600e54115b156109c8576109c88282600e54610e179190613d11565b6122cd565b60608151835114610e815760405162461bcd60e51b815260206004820152602960248201527f455243313135353a206163636f756e747320616e6420696473206c656e677468604482015268040dad2e6dac2e8c6d60bb1b6064820152608401610971565b600083516001600160401b03811115610e9c57610e9c613616565b604051908082528060200260200182016040528015610ec5578160200160208202803683370190505b50905060005b8451811015610f3d57610f10858281518110610ee957610ee9613dd8565b6020026020010151858381518110610f0357610f03613dd8565b602002602001015161090a565b828281518110610f2257610f22613dd8565b6020908102919091010152610f3681613dee565b9050610ecb565b509392505050565b600f546000908190819081908190819060ff168015610f6657506000600e54115b8015610f7c5750600c546001600160a01b031615155b600e549096509450610f8e8786613d11565b600d54600e549195506001600160a01b03168015159450925015610fc657600e54610fb76124bf565b610fc19190613d3e565b610fc9565b60005b905091939550919395565b610fdc611d69565b610fe4611dc3565b60125460ff16156110205760405162461bcd60e51b8152602060048201526006602482015265233937bd32b760d11b6044820152606401610971565b601061102d828483613e4d565b507ff9c7803e94e0d3c02900d8a90893a6d5e90dd04d32a4cfe825520f82bf9f32f6828260405161105f929190613f0c565b60405180910390a16109d26001600755565b611079611d69565b611081611dc3565b6001600160a01b0381166110c05760405162461bcd60e51b81526020600482015260066024820152650425354523d360d41b6044820152606401610971565b806001600160a01b031663313ce5676040518163ffffffff1660e01b8152600401602060405180830381865afa92505050801561111a575060408051601f3d908101601f1916820190925261111791810190613f3b565b60015b15611167578060ff166009146111655760405162461bcd60e51b815260206004820152601060248201526f4253545220646563696d616c73213d3960801b6044820152606401610971565b505b600c80546001600160a01b0319166001600160a01b0383169081179091556040517ffe37b59bd6b0c8034f81a90db3e6dc84d6f2bc202f58e7e33800a25edbf4023890600090a2610b836001600755565b6111c0611d69565b6111c8611dc3565b8281146112065760405162461bcd60e51b815260206004820152600c60248201526b098cadc40dad2e6dac2e8c6d60a31b6044820152606401610971565b6000805b8281101561124a5783838281811061122457611224613dd8565b90506020020135826112369190613da0565b91508061124281613dee565b91505061120a565b50600081116112875760405162461bcd60e51b81526020600482015260096024820152684e6f20746f6b656e7360b81b6044820152606401610971565b6001600052600360205260008051602061430f833981519152547f0000000000000000000000000000000000000000000000000000000000000000906112ce908390613da0565b11156112ec5760405162461bcd60e51b815260040161097190613db3565b60005b848110156113df5761135186868381811061130c5761130c613dd8565b905060200201602081019061132191906135d7565b600186868581811061133557611335613dd8565b90506020020135604051806020016040528060008152506121aa565b600f5460ff16801561136a5750600f54610100900460ff165b801561137857506000600e54115b156113cd576113cd86868381811061139257611392613dd8565b90506020020160208101906113a791906135d7565b8585848181106113b9576113b9613dd8565b90506020020135600e54610e179190613d11565b806113d781613dee565b9150506112ef565b50506113eb6001600755565b50505050565b600061099d82600161090a565b6001600160a01b03831633148061141a575061141a8333610870565b6114365760405162461bcd60e51b815260040161097190613d52565b6114418383836126a7565b505050565b600f5460009060ff16158061145b5750600e54155b8061146f5750600c546001600160a01b0316155b1561147a5750600090565b600e546114856124bf565b610ce49190613d3e565b611497611d69565b610d0b6000612843565b6114a9611d69565b6114b1611dc3565b600b805460ff19168215159081179091556040519081527f09fbcaeaab6483fbc077fb9eedcc4f67a9ea297dd193f88f0b10abb2405f6e1a906020015b60405180910390a1610b836001600755565b611508611d69565b611510611dc3565b610d01612895565b611520611d69565b611528611dc3565b600b546109c8906001600160a01b0384811691610100900416836128d8565b61154f611d69565b611557611dc3565b60125460ff16156115935760405162461bcd60e51b8152602060048201526006602482015265233937bd32b760d11b6044820152606401610971565b60116115a0828483613e4d565b507faf497693a87db12ca89131a31edbb3db4bb5702dfb284e8ae7427d185f09112d828260405161105f929190613f0c565b600980546109e390613c2a565b6115e7611dc3565b6115ef61293b565b33321461162d5760405162461bcd60e51b815260206004820152600c60248201526b4e6f20636f6e74726163747360a01b6044820152606401610971565b600b5460ff1661166a5760405162461bcd60e51b815260206004820152600860248201526729b0b6329037b33360c11b6044820152606401610971565b600081116116a55760405162461bcd60e51b81526020600482015260086024820152670416d6f756e743d360c41b6044820152606401610971565b6001600052600360205260008051602061430f833981519152547f0000000000000000000000000000000000000000000000000000000000000000906116ec908390613da0565b111561170a5760405162461bcd60e51b815260040161097190613db3565b600081600a5461171a9190613d11565b600b5490915061175f906001600160a01b037f000000000000000000000000000000000000000000000000000000000000000081169133916101009091041684612988565b61177b33600184604051806020016040528060008152506121aa565b600f5460ff16801561178f57506000600e54115b156117a6576117a63383600e54610e179190613d11565b50610b836001600755565b6109d23383836129c0565b6117c4611d69565b6117cc611dc3565b610d016000600455565b6117de611d69565b6117e6611dc3565b600f805482151562010000810262ff000019861515610100810261ff00198a151590811661ffff19909716969096171791909116919091179093556040805192835260208301939093528183015290517f7c7c1de48959d0599d7ec62bfc3eeba8883b1509396c0d37cacfbdab91e4eb1b9181900360600190a16114416001600755565b611872611d69565b61187a611dc3565b6012805460ff191660011790556040517feef043febddf4e1d1cf1f72ff1407b84e036e805aa0934418cb82095da8d716490600090a1610d0b6001600755565b6118c2611d69565b6118ca611dc3565b6118d8633b9aca0082613f5e565b1561191b5760405162461bcd60e51b81526020600482015260136024820152726e6f74206d756c7469706c65206f662031653960681b6044820152606401610971565b600e8190556040518181527fc6a366b22562e06e64029b2eff2faaefa1d3a529ec8934a58e1740b21e62b5e6906020016114ee565b60606011805461195f90613c2a565b80601f016020809104026020016040519081016040528092919081815260200182805461198b90613c2a565b80156119d85780601f106119ad576101008083540402835291602001916119d8565b820191906000526020600020905b8154815290600101906020018083116119bb57829003601f168201915b5050505050905090565b6119ea611d69565b6119f2611dc3565b600d805482158015600160a01b026001600160a81b03199092166001600160a01b03861617919091179091558190611a3257506001600160a01b03821615155b15611bb257600c5460408051637e062a3560e11b815290516001600160a01b039283169285169163fc0c546a9160048083019260209291908290030181865afa158015611a83573d6000803e3d6000fd5b505050506040513d601f19601f82011682018060405250810190611aa79190613f72565b6001600160a01b031614611af45760405162461bcd60e51b81526020600482015260146024820152730ecc2ead8e840e8ded6cadc40dad2e6dac2e8c6d60631b6044820152606401610971565b6040516355138f0d60e11b81523060048201526001600160a01b0383169063aa271e1a90602401602060405180830381865afa158015611b38573d6000803e3d6000fd5b505050506040513d601f19601f82011682018060405250810190611b5c9190613f8f565b611bb25760405162461bcd60e51b815260206004820152602160248201527f7661756c74206e6f7420617574686f72697a696e672074686973206d696e74656044820152603960f91b6064820152608401610971565b816001600160a01b03167f7ee9b20b693f6dc80cff00db19a003d94b2c81f94d836cd855935f4e40e6ae8882604051611bef911515815260200190565b60405180910390a26109d26001600755565b6001600160a01b038516331480611c1d5750611c1d8533610870565b611c395760405162461bcd60e51b815260040161097190613d52565b610cc68585858585612aa0565b611c4e611d69565b6001600160a01b038116611cb35760405162461bcd60e51b815260206004820152602660248201527f4f776e61626c653a206e6577206f776e657220697320746865207a65726f206160448201526564647265737360d01b6064820152608401610971565b610b8381612843565b611cc4611d69565b611ccc611dc3565b600a8190556040518181527f680d48f3ac056f34ba048f33f9724cf2b4023626c5baa2b6bc554ec47fbfa101906020016114ee565b6001600160a01b038316331480611d1d5750611d1d8333610870565b611d395760405162461bcd60e51b815260040161097190613d52565b611441838383612bd8565b60006001600160e01b0319821663152a902d60e11b148061099d575061099d82612cf0565b6006546001600160a01b03163314610d0b5760405162461bcd60e51b815260206004820181905260248201527f4f776e61626c653a2063616c6c6572206973206e6f7420746865206f776e65726044820152606401610971565b600260075403611e155760405162461bcd60e51b815260206004820152601f60248201527f5265656e7472616e637947756172643a207265656e7472616e742063616c6c006044820152606401610971565b6002600755565b6127106001600160601b0382161115611e8a5760405162461bcd60e51b815260206004820152602a60248201527f455243323938313a20726f79616c7479206665652077696c6c206578636565646044820152692073616c65507269636560b01b6064820152608401610971565b6001600160a01b038216611ee05760405162461bcd60e51b815260206004820152601960248201527f455243323938313a20696e76616c6964207265636569766572000000000000006044820152606401610971565b604080518082019091526001600160a01b039092168083526001600160601b039091166020909201829052600160a01b90910217600455565b60606000611f2683612d40565b60010190506000816001600160401b03811115611f4557611f45613616565b6040519080825280601f01601f191660200182016040528015611f6f576020820181803683370190505b5090508181016020015b600019016f181899199a1a9b1b9c1cb0b131b232b360811b600a86061a8153600a8504945084611f7957509392505050565b8151835114611fcc5760405162461bcd60e51b815260040161097190613fac565b6001600160a01b038416611ff25760405162461bcd60e51b815260040161097190613ff4565b33612001818787878787612e18565b60005b84518110156120e757600085828151811061202157612021613dd8565b60200260200101519050600085838151811061203f5761203f613dd8565b602090810291909101810151600084815280835260408082206001600160a01b038e16835290935291909120549091508181101561208f5760405162461bcd60e51b815260040161097190614039565b6000838152602081815260408083206001600160a01b038e8116855292528083208585039055908b168252812080548492906120cc908490613da0565b92505081905550505050806120e090613dee565b9050612004565b50846001600160a01b0316866001600160a01b0316826001600160a01b03167f4a39dc06d4c0dbc64b70af90fd698a233a518aa5d07e595d983b8c0526c8f7fb8787604051612137929190614083565b60405180910390a461214d818787878787612e26565b505050505050565b61215d612f81565b6006805460ff60a01b191690557f5db9ee0a495bf2e6ff9c91a7834c1ba4fdd244a5e8aa4e537bd38aeae4b073aa335b6040516001600160a01b03909116815260200160405180910390a1565b6001600160a01b03841661220a5760405162461bcd60e51b815260206004820152602160248201527f455243313135353a206d696e7420746f20746865207a65726f206164647265736044820152607360f81b6064820152608401610971565b33600061221685612fd1565b9050600061222385612fd1565b905061223483600089858589612e18565b6000868152602081815260408083206001600160a01b038b16845290915281208054879290612264908490613da0565b909155505060408051878152602081018790526001600160a01b03808a1692600092918716917fc3d58168c5ae7397731d063d5bbf3d657854427343f4c083240f7aacaa2d0f62910160405180910390a46122c48360008989898961301c565b50505050505050565b600c546001600160a01b03166123125760405162461bcd60e51b815260206004820152600a6024820152691094d514881d5b9cd95d60b21b6044820152606401610971565b600061231c6124bf565b9050818110156123bd57600f5462010000900460ff16156123735760405162461bcd60e51b815260206004820152601160248201527024b739bab33334b1b4b2b73a102129aa2960791b6044820152606401610971565b60408051838152602081018390526001600160a01b038516917fc004e42a0ef3e8da18b32b9e164efe167121b69af07228633f808f510be5dbf291015b60405180910390a2505050565b600d546001600160a01b03166123e957600c546123e4906001600160a01b031684846128d8565b612484565b600d54600160a01b900460ff161561246657600d54604051631f72642160e31b81526001600160a01b038581166004830152602482018590529091169063fb93210890604401600060405180830381600087803b15801561244957600080fd5b505af115801561245d573d6000803e3d6000fd5b50505050612484565b600d54600c54612484916001600160a01b0391821691168585612988565b826001600160a01b03167f6177f4110771217c72937d51f3a73915f2c714a6b98507e17eea7a186136a24a836040516123b091815260200190565b600c546000906001600160a01b03166124d85750600090565b600d546001600160a01b031661255557600c546040516370a0823160e01b81523060048201526001600160a01b03909116906370a08231906024015b602060405180830381865afa158015612531573d6000803e3d6000fd5b505050506040513d601f19601f82011682018060405250810190610ce491906140b1565b600d54600160a01b900460ff161561259b57600c54600d546040516370a0823160e01b81526001600160a01b0391821660048201529116906370a0823190602401612514565b600c54600d546040516370a0823160e01b81526001600160a01b03918216600482015260009291909116906370a0823190602401602060405180830381865afa1580156125ec573d6000803e3d6000fd5b505050506040513d601f19601f8201168201806040525081019061261091906140b1565b600c54600d54604051636eb1769f60e11b81526001600160a01b03918216600482015230602482015292935060009291169063dd62ed3e90604401602060405180830381865afa158015612668573d6000803e3d6000fd5b505050506040513d601f19601f8201168201806040525081019061268c91906140b1565b905080821061269b578061269d565b815b9250505090565b90565b6001600160a01b0383166126cd5760405162461bcd60e51b8152600401610971906140ca565b80518251146126ee5760405162461bcd60e51b815260040161097190613fac565b600033905061271181856000868660405180602001604052806000815250612e18565b60005b83518110156127d657600084828151811061273157612731613dd8565b60200260200101519050600084838151811061274f5761274f613dd8565b602090810291909101810151600084815280835260408082206001600160a01b038c16835290935291909120549091508181101561279f5760405162461bcd60e51b81526004016109719061410d565b6000928352602083815260408085206001600160a01b038b16865290915290922091039055806127ce81613dee565b915050612714565b5060006001600160a01b0316846001600160a01b0316826001600160a01b03167f4a39dc06d4c0dbc64b70af90fd698a233a518aa5d07e595d983b8c0526c8f7fb8686604051612827929190614083565b60405180910390a46040805160208101909152600090526113eb565b600680546001600160a01b038381166001600160a01b0319831681179093556040519116919082907f8be0079c531659141344cd1fd0a4f28419497f9722a3daafe3b4186f6b6457e090600090a35050565b61289d61293b565b6006805460ff60a01b1916600160a01b1790557f62e78cea01bee320cd4e420270b5ea74000d11b0c9f74754ebdbfc544b05a25861218d3390565b6040516001600160a01b03831660248201526044810182905261144190849063a9059cbb60e01b906064015b60408051601f198184030181529190526020810180516001600160e01b03166001600160e01b0319909316929092179091526130d7565b600654600160a01b900460ff1615610d0b5760405162461bcd60e51b815260206004820152601060248201526f14185d5cd8589b194e881c185d5cd95960821b6044820152606401610971565b6040516001600160a01b03808516602483015283166044820152606481018290526113eb9085906323b872dd60e01b90608401612904565b816001600160a01b0316836001600160a01b031603612a335760405162461bcd60e51b815260206004820152602960248201527f455243313135353a2073657474696e6720617070726f76616c20737461747573604482015268103337b91039b2b63360b91b6064820152608401610971565b6001600160a01b03838116600081815260016020908152604080832094871680845294825291829020805460ff191686151590811790915591519182527f17307eab39ab6107e8899845ad3d59bd9653f200f220920489ca2b5937696c31910160405180910390a3505050565b6001600160a01b038416612ac65760405162461bcd60e51b815260040161097190613ff4565b336000612ad285612fd1565b90506000612adf85612fd1565b9050612aef838989858589612e18565b6000868152602081815260408083206001600160a01b038c16845290915290205485811015612b305760405162461bcd60e51b815260040161097190614039565b6000878152602081815260408083206001600160a01b038d8116855292528083208985039055908a16825281208054889290612b6d908490613da0565b909155505060408051888152602081018890526001600160a01b03808b16928c821692918816917fc3d58168c5ae7397731d063d5bbf3d657854427343f4c083240f7aacaa2d0f62910160405180910390a4612bcd848a8a8a8a8a61301c565b505050505050505050565b6001600160a01b038316612bfe5760405162461bcd60e51b8152600401610971906140ca565b336000612c0a84612fd1565b90506000612c1784612fd1565b9050612c3783876000858560405180602001604052806000815250612e18565b6000858152602081815260408083206001600160a01b038a16845290915290205484811015612c785760405162461bcd60e51b81526004016109719061410d565b6000868152602081815260408083206001600160a01b038b81168086529184528285208a8703905582518b81529384018a90529092908816917fc3d58168c5ae7397731d063d5bbf3d657854427343f4c083240f7aacaa2d0f62910160405180910390a46040805160208101909152600090526122c4565b60006001600160e01b03198216636cdb3d1360e11b1480612d2157506001600160e01b031982166303a24d0760e21b145b8061099d57506301ffc9a760e01b6001600160e01b031983161461099d565b60008072184f03e93ff9f4daa797ed6e38ed64bf6a1f0160401b8310612d7f5772184f03e93ff9f4daa797ed6e38ed64bf6a1f0160401b830492506040015b6d04ee2d6d415b85acef81000000008310612dab576d04ee2d6d415b85acef8100000000830492506020015b662386f26fc100008310612dc957662386f26fc10000830492506010015b6305f5e1008310612de1576305f5e100830492506008015b6127108310612df557612710830492506004015b60648310612e07576064830492506002015b600a831061099d5760010192915050565b61214d8686868686866131ac565b6001600160a01b0384163b1561214d5760405163bc197c8160e01b81526001600160a01b0385169063bc197c8190612e6a9089908990889088908890600401614151565b6020604051808303816000875af1925050508015612ea5575060408051601f3d908101601f19168201909252612ea2918101906141af565b60015b612f5157612eb16141cc565b806308c379a003612eea5750612ec56141e7565b80612ed05750612eec565b8060405162461bcd60e51b815260040161097191906135ab565b505b60405162461bcd60e51b815260206004820152603460248201527f455243313135353a207472616e7366657220746f206e6f6e2d455243313135356044820152732932b1b2b4bb32b91034b6b83632b6b2b73a32b960611b6064820152608401610971565b6001600160e01b0319811663bc197c8160e01b146122c45760405162461bcd60e51b815260040161097190614270565b600654600160a01b900460ff16610d0b5760405162461bcd60e51b815260206004820152601460248201527314185d5cd8589b194e881b9bdd081c185d5cd95960621b6044820152606401610971565b6040805160018082528183019092526060916000919060208083019080368337019050509050828160008151811061300b5761300b613dd8565b602090810291909101015292915050565b6001600160a01b0384163b1561214d5760405163f23a6e6160e01b81526001600160a01b0385169063f23a6e619061306090899089908890889088906004016142b8565b6020604051808303816000875af192505050801561309b575060408051601f3d908101601f19168201909252613098918101906141af565b60015b6130a757612eb16141cc565b6001600160e01b0319811663f23a6e6160e01b146122c45760405162461bcd60e51b815260040161097190614270565b600061312c826040518060400160405280602081526020017f5361666545524332303a206c6f772d6c6576656c2063616c6c206661696c6564815250856001600160a01b03166133259092919063ffffffff16565b905080516000148061314d57508080602001905181019061314d9190613f8f565b6114415760405162461bcd60e51b815260206004820152602a60248201527f5361666545524332303a204552433230206f7065726174696f6e20646964206e6044820152691bdd081cdd58d8d9595960b21b6064820152608401610971565b6001600160a01b0385166132335760005b8351811015613231578281815181106131d8576131d8613dd8565b6020026020010151600360008684815181106131f6576131f6613dd8565b60200260200101518152602001908152602001600020600082825461321b9190613da0565b9091555061322a905081613dee565b90506131bd565b505b6001600160a01b03841661214d5760005b83518110156122c457600084828151811061326157613261613dd8565b60200260200101519050600084838151811061327f5761327f613dd8565b60200260200101519050600060036000848152602001908152602001600020549050818110156133025760405162461bcd60e51b815260206004820152602860248201527f455243313135353a206275726e20616d6f756e74206578636565647320746f74604482015267616c537570706c7960c01b6064820152608401610971565b6000928352600360205260409092209103905561331e81613dee565b9050613244565b6060613334848460008561333c565b949350505050565b60608247101561339d5760405162461bcd60e51b815260206004820152602660248201527f416464726573733a20696e73756666696369656e742062616c616e636520666f6044820152651c8818d85b1b60d21b6064820152608401610971565b600080866001600160a01b031685876040516133b991906142f2565b60006040518083038185875af1925050503d80600081146133f6576040519150601f19603f3d011682016040523d82523d6000602084013e6133fb565b606091505b509150915061340c87838387613417565b979650505050505050565b6060831561348657825160000361347f576001600160a01b0385163b61347f5760405162461bcd60e51b815260206004820152601d60248201527f416464726573733a2063616c6c20746f206e6f6e2d636f6e74726163740000006044820152606401610971565b5081613334565b6133348383815115612ed05781518083602001fd5b6001600160a01b0381168114610b8357600080fd5b600080604083850312156134c357600080fd5b82356134ce8161349b565b946020939093013593505050565b6001600160e01b031981168114610b8357600080fd5b60006020828403121561350457600080fd5b813561350f816134dc565b9392505050565b6000806040838503121561352957600080fd5b82356135348161349b565b915060208301356001600160601b038116811461355057600080fd5b809150509250929050565b60005b8381101561357657818101518382015260200161355e565b50506000910152565b6000815180845261359781602086016020860161355b565b601f01601f19169290920160200192915050565b60208152600061350f602083018461357f565b6000602082840312156135d057600080fd5b5035919050565b6000602082840312156135e957600080fd5b813561350f8161349b565b6000806040838503121561360757600080fd5b50508035926020909101359150565b634e487b7160e01b600052604160045260246000fd5b601f8201601f191681016001600160401b038111828210171561365157613651613616565b6040525050565b60006001600160401b0382111561367157613671613616565b5060051b60200190565b600082601f83011261368c57600080fd5b8135602061369982613658565b6040516136a6828261362c565b83815260059390931b85018201928281019150868411156136c657600080fd5b8286015b848110156136e157803583529183019183016136ca565b509695505050505050565b600082601f8301126136fd57600080fd5b81356001600160401b0381111561371657613716613616565b60405161372d601f8301601f19166020018261362c565b81815284602083860101111561374257600080fd5b816020850160208301376000918101602001919091529392505050565b600080600080600060a0868803121561377757600080fd5b85356137828161349b565b945060208601356137928161349b565b935060408601356001600160401b03808211156137ae57600080fd5b6137ba89838a0161367b565b945060608801359150808211156137d057600080fd5b6137dc89838a0161367b565b935060808801359150808211156137f257600080fd5b506137ff888289016136ec565b9150509295509295909350565b6000806040838503121561381f57600080fd5b82356001600160401b038082111561383657600080fd5b818501915085601f83011261384a57600080fd5b8135602061385782613658565b604051613864828261362c565b83815260059390931b850182019282810191508984111561388457600080fd5b948201945b838610156138ab57853561389c8161349b565b82529482019490820190613889565b965050860135925050808211156138c157600080fd5b506138ce8582860161367b565b9150509250929050565b600081518084526020808501945080840160005b83811015613908578151875295820195908201906001016138ec565b509495945050505050565b60208152600061350f60208301846138d8565b6000806020838503121561393957600080fd5b82356001600160401b038082111561395057600080fd5b818501915085601f83011261396457600080fd5b81358181111561397357600080fd5b86602082850101111561398557600080fd5b60209290920196919550909350505050565b60008083601f8401126139a957600080fd5b5081356001600160401b038111156139c057600080fd5b6020830191508360208260051b8501011115610c7a57600080fd5b600080600080604085870312156139f157600080fd5b84356001600160401b0380821115613a0857600080fd5b613a1488838901613997565b90965094506020870135915080821115613a2d57600080fd5b50613a3a87828801613997565b95989497509550505050565b600080600060608486031215613a5b57600080fd5b8335613a668161349b565b925060208401356001600160401b0380821115613a8257600080fd5b613a8e8783880161367b565b93506040860135915080821115613aa457600080fd5b50613ab18682870161367b565b9150509250925092565b8015158114610b8357600080fd5b600060208284031215613adb57600080fd5b813561350f81613abb565b60008060408385031215613af957600080fd5b8235613b048161349b565b9150602083013561355081613abb565b600080600060608486031215613b2957600080fd5b8335613b3481613abb565b92506020840135613b4481613abb565b91506040840135613b5481613abb565b809150509250925092565b60008060408385031215613b7257600080fd5b8235613b7d8161349b565b915060208301356135508161349b565b600080600080600060a08688031215613ba557600080fd5b8535613bb08161349b565b94506020860135613bc08161349b565b9350604086013592506060860135915060808601356001600160401b03811115613be957600080fd5b6137ff888289016136ec565b600080600060608486031215613c0a57600080fd5b8335613c158161349b565b95602085013595506040909401359392505050565b600181811c90821680613c3e57607f821691505b602082108103613c5e57634e487b7160e01b600052602260045260246000fd5b50919050565b6000808454613c7281613c2a565b60018281168015613c8a5760018114613c9f57613cce565b60ff1984168752821515830287019450613cce565b8860005260208060002060005b85811015613cc55781548a820152908401908201613cac565b50505082870194505b505050508351613ce281836020880161355b565b64173539b7b760d91b9101908152600501949350505050565b634e487b7160e01b600052601160045260246000fd5b808202811582820484141761099d5761099d613cfb565b634e487b7160e01b600052601260045260246000fd5b600082613d4d57613d4d613d28565b500490565b6020808252602e908201527f455243313135353a2063616c6c6572206973206e6f7420746f6b656e206f776e60408201526d195c881bdc88185c1c1c9bdd995960921b606082015260800190565b8082018082111561099d5761099d613cfb565b6020808252600b908201526a045786365656473206361760ac1b604082015260600190565b634e487b7160e01b600052603260045260246000fd5b600060018201613e0057613e00613cfb565b5060010190565b601f82111561144157600081815260208120601f850160051c81016020861015613e2e5750805b601f850160051c820191505b8181101561214d57828155600101613e3a565b6001600160401b03831115613e6457613e64613616565b613e7883613e728354613c2a565b83613e07565b6000601f841160018114613eac5760008515613e945750838201355b600019600387901b1c1916600186901b178355610cc6565b600083815260209020601f19861690835b82811015613edd5786850135825560209485019460019092019101613ebd565b5086821015613efa5760001960f88860031b161c19848701351681555b505060018560011b0183555050505050565b60208152816020820152818360408301376000818301604090810191909152601f909201601f19160101919050565b600060208284031215613f4d57600080fd5b815160ff8116811461350f57600080fd5b600082613f6d57613f6d613d28565b500690565b600060208284031215613f8457600080fd5b815161350f8161349b565b600060208284031215613fa157600080fd5b815161350f81613abb565b60208082526028908201527f455243313135353a2069647320616e6420616d6f756e7473206c656e677468206040820152670dad2e6dac2e8c6d60c31b606082015260800190565b60208082526025908201527f455243313135353a207472616e7366657220746f20746865207a65726f206164604082015264647265737360d81b606082015260800190565b6020808252602a908201527f455243313135353a20696e73756666696369656e742062616c616e636520666f60408201526939103a3930b739b332b960b11b606082015260800190565b60408152600061409660408301856138d8565b82810360208401526140a881856138d8565b95945050505050565b6000602082840312156140c357600080fd5b5051919050565b60208082526023908201527f455243313135353a206275726e2066726f6d20746865207a65726f206164647260408201526265737360e81b606082015260800190565b60208082526024908201527f455243313135353a206275726e20616d6f756e7420657863656564732062616c604082015263616e636560e01b606082015260800190565b6001600160a01b0386811682528516602082015260a06040820181905260009061417d908301866138d8565b828103606084015261418f81866138d8565b905082810360808401526141a3818561357f565b98975050505050505050565b6000602082840312156141c157600080fd5b815161350f816134dc565b600060033d11156126a45760046000803e5060005160e01c90565b600060443d10156141f55790565b6040516003193d81016004833e81513d6001600160401b03816024840111818411171561422457505050505090565b828501915081518181111561423c5750505050505090565b843d87010160208285010111156142565750505050505090565b6142656020828601018761362c565b509095945050505050565b60208082526028908201527f455243313135353a204552433131353552656365697665722072656a656374656040820152676420746f6b656e7360c01b606082015260800190565b6001600160a01b03868116825285166020820152604081018490526060810183905260a06080820181905260009061340c9083018461357f565b6000825161430481846020870161355b565b919091019291505056fea15bc60c955c405d20d9149c709e2460f1c2d9a497496a7f46004d1772c3054ca26469706673582212200d7df337cf27a58bc345d30754a48318a78449510d4af6f01a21620a6a1e1beb64736f6c63430008140033",
  "devdoc": {
    "events": {
      "ApprovalForAll(address,address,bool)": {
        "details": "Emitted when `account` grants or revokes permission to `operator` to transfer their tokens, according to `approved`."
      },
      "Paused(address)": {
        "details": "Emitted when the pause is triggered by `account`."
      },
      "TransferBatch(address,address,address,uint256[],uint256[])": {
        "details": "Equivalent to multiple {TransferSingle} events, where `operator`, `from` and `to` are the same for all transfers."
      },
      "TransferSingle(address,address,address,uint256,uint256)": {
        "details": "Emitted when `value` tokens of token type `id` are transferred from `from` to `to` by `operator`."
      },
      "URI(string,uint256)": {
        "details": "Emitted when the URI for token type `id` changes to `value`, if it is a non-programmatic URI. If an {URI} event was emitted for `id`, the standard https://eips.ethereum.org/EIPS/eip-1155#metadata-extensions[guarantees] that `value` will equal the value returned by {IERC1155MetadataURI-uri}."
      },
      "Unpaused(address)": {
        "details": "Emitted when the pause is lifted by `account`."
      }
    },
    "kind": "dev",
    "methods": {
      "balanceOf(address,uint256)": {
        "details": "See {IERC1155-balanceOf}. Requirements: - `account` cannot be the zero address."
      },
      "balanceOfBatch(address[],uint256[])": {
        "details": "See {IERC1155-balanceOfBatch}. Requirements: - `accounts` and `ids` must have the same length."
      },
      "exists(uint256)": {
        "details": "Indicates whether any token exist with a given id, or not."
      },
      "isApprovedForAll(address,address)": {
        "details": "See {IERC1155-isApprovedForAll}."
      },
      "owner()": {
        "details": "Returns the address of the current owner."
      },
      "paused()": {
        "details": "Returns true if the contract is paused, and false otherwise."
      },
      "renounceOwnership()": {
        "details": "Leaves the contract without owner. It will not be possible to call `onlyOwner` functions. Can only be called by the current owner. NOTE: Renouncing ownership will leave the contract without an owner, thereby disabling any functionality that is only available to the owner."
      },
      "royaltyInfo(uint256,uint256)": {
        "details": "Returns how much royalty is owed and to whom, based on a sale price that may be denominated in any unit of exchange. The royalty amount is denominated and should be paid in that same unit of exchange."
      },
      "safeBatchTransferFrom(address,address,uint256[],uint256[],bytes)": {
        "details": "See {IERC1155-safeBatchTransferFrom}."
      },
      "safeTransferFrom(address,address,uint256,uint256,bytes)": {
        "details": "See {IERC1155-safeTransferFrom}."
      },
      "setApprovalForAll(address,bool)": {
        "details": "See {IERC1155-setApprovalForAll}."
      },
      "totalSupply(uint256)": {
        "details": "Total amount of tokens in with a given id."
      },
      "transferOwnership(address)": {
        "details": "Transfers ownership of the contract to a new account (`newOwner`). Can only be called by the current owner."
      }
    },
    "title": "DRVNCarbon (TOKEN_ID = 1)",
    "version": 1
  },
  "userdoc": {
    "kind": "user",
    "methods": {},
    "notice": "ERC1155 single-ID collection with USDC paid mint, optional BSTR rewards (vault / wallet / contract-held),         royalties (ERC2981), pause, airdrop, metadata freeze, and frontend helpers.",
    "version": 1
  },
  "storageLayout": {
    "storage": [
      {
        "astId": 330,
        "contract": "contracts/DRVNCarbon.sol:DRVNCarbon",
        "label": "_balances",
        "offset": 0,
        "slot": "0",
        "type": "t_mapping(t_uint256,t_mapping(t_address,t_uint256))"
      },
      {
        "astId": 336,
        "contract": "contracts/DRVNCarbon.sol:DRVNCarbon",
        "label": "_operatorApprovals",
        "offset": 0,
        "slot": "1",
        "type": "t_mapping(t_address,t_mapping(t_address,t_bool))"
      },
      {
        "astId": 338,
        "contract": "contracts/DRVNCarbon.sol:DRVNCarbon",
        "label": "_uri",
        "offset": 0,
        "slot": "2",
        "type": "t_string_storage"
      },
      {
        "astId": 1769,
        "contract": "contracts/DRVNCarbon.sol:DRVNCarbon",
        "label": "_totalSupply",
        "offset": 0,
        "slot": "3",
        "type": "t_mapping(t_uint256,t_uint256)"
      },
      {
        "astId": 2463,
        "contract": "contracts/DRVNCarbon.sol:DRVNCarbon",
        "label": "_defaultRoyaltyInfo",
        "offset": 0,
        "slot": "4",
        "type": "t_struct(RoyaltyInfo)2460_storage"
      },
      {
        "astId": 2468,
        "contract": "contracts/DRVNCarbon.sol:DRVNCarbon",
        "label": "_tokenRoyaltyInfo",
        "offset": 0,
        "slot": "5",
        "type": "t_mapping(t_uint256,t_struct(RoyaltyInfo)2460_storage)"
      },
      {
        "astId": 7,
        "contract": "contracts/DRVNCarbon.sol:DRVNCarbon",
        "label": "_owner",
        "offset": 0,
        "slot": "6",
        "type": "t_address"
      },
      {
        "astId": 149,
        "contract": "contracts/DRVNCarbon.sol:DRVNCarbon",
        "label": "_paused",
        "offset": 20,
        "slot": "6",
        "type": "t_bool"
      },
      {
        "astId": 250,
        "contract": "contracts/DRVNCarbon.sol:DRVNCarbon",
        "label": "_status",
        "offset": 0,
        "slot": "7",
        "type": "t_uint256"
      },
      {
        "astId": 4297,
        "contract": "contracts/DRVNCarbon.sol:DRVNCarbon",
        "label": "name",
        "offset": 0,
        "slot": "8",
        "type": "t_string_storage"
      },
      {
        "astId": 4299,
        "contract": "contracts/DRVNCarbon.sol:DRVNCarbon",
        "label": "symbol",
        "offset": 0,
        "slot": "9",
        "type": "t_string_storage"
      },
      {
        "astId": 4303,
        "contract": "contracts/DRVNCarbon.sol:DRVNCarbon",
        "label": "mintPrice",
        "offset": 0,
        "slot": "10",
        "type": "t_uint256"
      },
      {
        "astId": 4305,
        "contract": "contracts/DRVNCarbon.sol:DRVNCarbon",
        "label": "saleActive",
        "offset": 0,
        "slot": "11",
        "type": "t_bool"
      },
      {
        "astId": 4307,
        "contract": "contracts/DRVNCarbon.sol:DRVNCarbon",
        "label": "fundsReceiver",
        "offset": 1,
        "slot": "11",
        "type": "t_address"
      },
      {
        "astId": 4313,
        "contract": "contracts/DRVNCarbon.sol:DRVNCarbon",
        "label": "BSTR",
        "offset": 0,
        "slot": "12",
        "type": "t_contract(IERC20)2009"
      },
      {
        "astId": 4315,
        "contract": "contracts/DRVNCarbon.sol:DRVNCarbon",
        "label": "rewardVault",
        "offset": 0,
        "slot": "13",
        "type": "t_address"
      },
      {
        "astId": 4317,
        "contract": "contracts/DRVNCarbon.sol:DRVNCarbon",
        "label": "rewardVaultIsContract",
        "offset": 20,
        "slot": "13",
        "type": "t_bool"
      },
      {
        "astId": 4319,
        "contract": "contracts/DRVNCarbon.sol:DRVNCarbon",
        "label": "rewardPerUnit",
        "offset": 0,
        "slot": "14",
        "type": "t_uint256"
      },
      {
        "astId": 4321,
        "contract": "contracts/DRVNCarbon.sol:DRVNCarbon",
        "label": "rewardEnabled",
        "offset": 0,
        "slot": "15",
        "type": "t_bool"
      },
      {
        "astId": 4323,
        "contract": "contracts/DRVNCarbon.sol:DRVNCarbon",
        "label": "rewardOnAirdrop",
        "offset": 1,
        "slot": "15",
        "type": "t_bool"
      },
      {
        "astId": 4325,
        "contract": "contracts/DRVNCarbon.sol:DRVNCarbon",
        "label": "rewardRevertIfInsufficient",
        "offset": 2,
        "slot": "15",
        "type": "t_bool"
      },
      {
        "astId": 4327,
        "contract": "contracts/DRVNCarbon.sol:DRVNCarbon",
        "label": "_baseURI",
        "offset": 0,
        "slot": "16",
        "type": "t_string_storage"
      },
      {
        "astId": 4329,
        "contract": "contracts/DRVNCarbon.sol:DRVNCarbon",
        "label": "_contractURI",
        "offset": 0,
        "slot": "17",
        "type": "t_string_storage"
      },
      {
        "astId": 4331,
        "contract": "contracts/DRVNCarbon.sol:DRVNCarbon",
        "label": "metadataFrozen",
        "offset": 0,
        "slot": "18",
        "type": "t_bool"
      }
    ],
    "types": {
      "t_address": {
        "encoding": "inplace",
        "label": "address",
        "numberOfBytes": "20"
      },
      "t_bool": {
        "encoding": "inplace",
        "label": "bool",
        "numberOfBytes": "1"
      },
      "t_contract(IERC20)2009": {
        "encoding": "inplace",
        "label": "contract IERC20",
        "numberOfBytes": "20"
      },
      "t_mapping(t_address,t_bool)": {
        "encoding": "mapping",
        "key": "t_address",
        "label": "mapping(address => bool)",
        "numberOfBytes": "32",
        "value": "t_bool"
      },
      "t_mapping(t_address,t_mapping(t_address,t_bool))": {
        "encoding": "mapping",
        "key": "t_address",
        "label": "mapping(address => mapping(address => bool))",
        "numberOfBytes": "32",
        "value": "t_mapping(t_address,t_bool)"
      },
      "t_mapping(t_address,t_uint256)": {
        "encoding": "mapping",
        "key": "t_address",
        "label": "mapping(address => uint256)",
        "numberOfBytes": "32",
        "value": "t_uint256"
      },
      "t_mapping(t_uint256,t_mapping(t_address,t_uint256))": {
        "encoding": "mapping",
        "key": "t_uint256",
        "label": "mapping(uint256 => mapping(address => uint256))",
        "numberOfBytes": "32",
        "value": "t_mapping(t_address,t_uint256)"
      },
      "t_mapping(t_uint256,t_struct(RoyaltyInfo)2460_storage)": {
        "encoding": "mapping",
        "key": "t_uint256",
        "label": "mapping(uint256 => struct ERC2981.RoyaltyInfo)",
        "numberOfBytes": "32",
        "value": "t_struct(RoyaltyInfo)2460_storage"
      },
      "t_mapping(t_uint256,t_uint256)": {
        "encoding": "mapping",
        "key": "t_uint256",
        "label": "mapping(uint256 => uint256)",
        "numberOfBytes": "32",
        "value": "t_uint256"
      },
      "t_string_storage": {
        "encoding": "bytes",
        "label": "string",
        "numberOfBytes": "32"
      },
      "t_struct(RoyaltyInfo)2460_storage": {
        "encoding": "inplace",
        "label": "struct ERC2981.RoyaltyInfo",
        "members": [
          {
            "astId": 2457,
            "contract": "contracts/DRVNCarbon.sol:DRVNCarbon",
            "label": "receiver",
            "offset": 0,
            "slot": "0",
            "type": "t_address"
          },
          {
            "astId": 2459,
            "contract": "contracts/DRVNCarbon.sol:DRVNCarbon",
            "label": "royaltyFraction",
            "offset": 20,
            "slot": "0",
            "type": "t_uint96"
          }
        ],
        "numberOfBytes": "32"
      },
      "t_uint256": {
        "encoding": "inplace",
        "label": "uint256",
        "numberOfBytes": "32"
      },
      "t_uint96": {
        "encoding": "inplace",
        "label": "uint96",
        "numberOfBytes": "12"
      }
    }
  }
}